:1007D8000A128A11EF2B0313831285018601870100
:1007E8008801890103178316890188010313831679
:1007F800811303138316003085000313831600301A
:10080800870003138316FF30860003138316FF3017
:1008180088000313831609146400850187010313F4
:1008280083120608F000031383120808F100F2018E
:10083800F301710803193C2C0313831209080918E2
:100848002F2426247008F30071087302031C412C1E
:10085800F300F20A282C0830F4000310F00DF30D11
:10086800710873020318F300F20DF40B312C412CBC
:10087800F2017008F3008914102C720885007308BF
:100888008700462C8312031307308A00F20E0F30BC
:100898007205EF27A000F20E0F307205EF27A100B6
:1008A800F30E0F307305EF27A200F30E0F30730518
:0A08B800EF27A300F201F301102C5A
:100FDE0082073034313432343334343435343634A9
:100FEE00373438343934413442344334443445345C
:020FFE00463477
:04400E00FC3FFF3F35
:00000001FF
