:08000000803102288731F42F42
:10086E0016302100970008002000110E890C013966
:10087E00080071082000B6007008B5000800710865
:10088E002000BA007008B900080071082000B800F6
:10089E007008B7000800640080010131890B532CE9
:1008AE0000340030F1008830F2008431D2248431DB
:1008BE0008007608F0007730F100F201F20A853177
:1008CE00A32584310800F0002000111E6F2C702C1F
:1008DE006B2C700823009A0008007730F000760821
:1008EE00F100F201F20A85313D25843177080800C6
:1008FE0070302100990098012200960121001A1FE4
:10090E00892C8A2C852C08008431BA2484318431B8
:10091E007F2484318431372484318431F22484312C
:10092E0008002000911E9C2C9D2C982CC0012300A9
:10093E009D1CA22CA32CA52C1D121D1619080800F7
:10094E00F200F101721CAC2CAD2CAF2C7008F1072B
:10095E000310F00D0310F20C7208031DB72CB82C07
:10096E00A92C7108080022008C018D01FF30210096
:10097E008C00FF308D00DA3023008D001F308C008C
:10098E0024008D018C0121009517803022009D00DE
:10099E0001309E000800F401E12C740871078400F8
:1009AE0072080318013E8500000884316A248431E0
:1009BE000130F40774087107840072080318013EB1
:1009CE0085001200031DEC2CED2CD42C0D3084313F
:1009DE006A2484310800083023009F0090309D0067
:1009EE0024309E008A309B009C010030F0000030C5
:1009FE00F1008431462484310030F0000030F100E3
:100A0E0084314C2484310030F0000030F100843108
:100A1E00402484312000C0010800F901FA0116308B
:100A2E00F00079088431A7248531003EF600F701E5
:100A3E008431602485310130F9070030FA3D7A089F
:100A4E00803AF80080307802031D2F2D0A3079028B
:100A5E00031C322D332D162D2000BE01A030F100C7
:100A6E008830F2008431D224853108007008F500F8
:100A7E0023009518432D442D3F2D7108F300F401EA
:100A8E0073089100740892005E2D95184F2D502D0D
:100A9E004C2D7F30950515147508860087011308B7
:100AAE0081000130F507013091070030923D013091
:100ABE00F202720A031D642D652D4C2D080084313F
:100ACE008B2485312000BF01843158248531843137
:100ADE003B248531003A0319752D762D6E2D843108
:100AEE0098248531FC004C307C0603197F2D802D17
:100AFE00922D41307C060319852D862D922D503076
:100B0E007C0603198B2D8C2D922D52307C06031DE5
:100B1E00912D922D962D7C082000BF006E2D0D304C
:100B2E007C06031D9B2D9C2DA02D87312B278531F7
:100B3E006E2D6E2D803102287108F5002300951858
:100B4E00A92DAA2DA52D7008FF3EF300FF30031826
:100B5E000030F40073089100740892007F30950500
:100B6E00DE2D23009518BC2DBD2DB82D75088600E1
:100B7E008701010893000130F5070130910700301D
:100B8E00923D200003108B1FCD2DCE2DCF2D0314A3
:100B9E008B132300151555309600AA309600951428
:100BAE0015112000031CDC2DDD2DDE2D8B170130E1
:100BBE00F202720A031DE42DE52DB82D0800F9018D
:100BCE00FD01E830F1008830F2008431D224853105
:100BDE000B2E84313B248531003A0319F72DF82D65
:100BEE000B2E843198248531F8000D307806031DC4
:100BFE00012E022E032E112E7D08203E8600870127
:100C0E00780881000130FD0714307D02031C102E80
:100C1E00112EF02D7D08203E8600870181012000D7
:100C2E002008031D1B2E1C2E332E0130BD00583004
:100C3E00F1008830F2008431D22485311630F00074
:100C4E0020003E088431A7248531003EF600F701CE
:100C5E00843160248531652EBD01BC30F1008830B1
:100C6E00F2008431D2248531512E1630F00020004E
:100C7E003E088431A7248531013E7907F6007908B4
:100C8E00203E860087010108F700843160248531FB
:100C9E000130F90715307902031C562E572E3C2EC3
:100CAE001630F00020003E088431A7248531003E26
:100CBE00F600F701F70A8431602485310800200020
:100CCE00C501C6011630F000200045088431A72466
:100CDE008631003EF600843174248631023A031DBB
:100CEE00792E7A2EC12E583084316A2486312030E6
:100CFE0084316A2486312000C101C2019C2E163037
:100D0E00F000200045088431A7248631013E2000E2
:100D1E004107F60084317424863184316A24863189
:100D2E0001302000C1070030C23D4208803AF80071
:100D3E0080307802031DA52E143041020318A82E10
:100D4E00A92EBC2E1630F000200045088431A724B1
:100D5E008631013E20004107F6008431742486312D
:100D6E00003A031DBB2EBC2E862E0D3084316A2414
:100D7E008631182F1630F000200045088431A72444
:100D8E008631003EF600843174248631013A031D0B
:100D9E00D12ED22E182F203084316A248631203065
:100DAE0084316A2486312000C301C401F42E16302A
:100DBE00F000200045088431A7248631013E200032
:100DCE004307F60084317424863184316A248631D7
:100DDE0001302000C3070030C43D4408803AF800BB
:100DEE0080307802031DFD2E143043020318002FAD
:100DFE00012F142F1630F000200045088431A7244F
:100E0E008631013E20004307F6008431742486317A
:100E1E00003A031D132F142FDE2E0D3084316A2459
:100E2E00863101302000C5070030C63D4608803AA5
:100E3E00F80080307802031D262F15304502031C62
:100E4E00292F2A2F692E0800E42F0030F600843156
:100E5E0074248731003A031D352F362F3E2FA030D4
:100E6E00F1008830F2008431D2248731F32FD23052
:100E7E00F1008830F2008431D22487318631662623
:100E8E008731F32F8531E625873120003D08031D7C
:100E9E00512F522FF32F0130BE07F32FC9011630F9
:100EAE00F00049088431A7248731003EF6008431D2
:100EBE0074248731013A031D652F662FC52FF73035
:100ECE00F1008830F2008431D22487312030843111
:100EDE006A248731203084316A2487312000C7018B
:100EEE00C8018F2F1630F000200049088431A72446
:100EFE008731013E20004707F60084317424873184
:100F0E0084316A24873101302000C7070030C83D84
:100F1E004808803AFB0080307B02031D982F143066
:100F2E00470203189B2F9C2FAF2F1630F000200086
:100F3E0049088431A7248731013E20004707F60077
:100F4E00843174248731003A031DAE2FAF2F792FD1
:100F5E000D3084316A2487311630F00020004908A4
:100F6E008431A7248731003EF6000230F700843129
:100F7E006024873101302000BB00F32F20003B0896
:100F8E00031DCA2FCB2FD22F3230F1008830F20042
:100F9E008431D224873101302000C9070A3049023A
:100FAE00031CDA2FDB2F562FF32F853114258731B3
:100FBE00F32F843158248731F32F20003F08413A14
:100FCE000319492F0D3A03192C2F1C3A0319552FCB
:100FDE00023A0319DC2FE02F0800FD0120308400B7
:100FEE000030850021308431522487312000853134
:100FFE00662D4C342D34453478346934623465347E
:10100E0020346C3469347334743461342C342034A9
:10101E0041342D344134673465346E346434613474
:10102E002C34203450342D34503472346F347834A0
:10103E0069346D346F342C34203452342D344134B1
:10104E00703461346734613420346C3469347334F1
:10105E0074346134003454346F3464346F34733404
:10106E0020346F34733420346134673465346E3415
:10107E00643461346D3465346E3474346F34733467
:10108E00203466346F34723461346D3420346134FC
:10109E00743465346E346434693464346F34733448
:1010AE0000344E3461346F34203466346F34693416
:1010BE00203470346F347334733469347634653459
:1010CE006C3420346134673465346E346434613486
:1010DE007234203428346E346F346D3465342034D9
:1010EE00763461347A3469346F34293400344E34B2
:1010FE0061346F34203464346934733470346F3433
:10110E006D346F34733420346434653420346D346C
:10111E0061346934733420346134673465346E3429
:10112E00643461346D3465346E3474346F347334B6
:10113E0000344C3469347334743461342034643480
:10114E00653420346134673465346E34643461340C
:10115E006D3465346E3474346F34733420347634B5
:10116E0061347A346934613400344134673465341F
:10117E006E34643461346D3465346E3474346F346B
:10118E0020347234653461346C3469347A346134A9
:10119E0064346F3400344C346934733474346134D1
:1011AE0020346434653420346134673465346E34ED
:1011BE00643461346D3465346E3474346F34733426
:1011CE0000344434693467346934743465342034FB
:1011DE006F3420346E346F346D3465343A340034E9
:1011EE00503472346F34783469346D346F343A3429
:0211FE000034BB
:020000040001F9
:04000E00E43FFF3F8D
:10E000000000000000000000000000000000000010
:10E010000000000000000000000000000000000000
:10E0200000000000000000000000000000000000F0
:10E0300000000000000000000000000000000000E0
:10E0400000000000000000000000000000000000D0
:10E0500000000000000000000000000000000000C0
:10E0600000000000000000000000000000000000B0
:10E0700000000000000000000000000000000000A0
:10E080000000000000000000000000000000000090
:10E090000000000000000000000000000000000080
:10E0A0000000000000000000000000000000000070
:10E0B0000000000000000000000000000000000060
:10E0C0000000000000000000000000000000000050
:10E0D0000000000000000000000000000000000040
:10E0E0000000000000000000000000000000000030
:10E0F0000000000000000000000000000000000020
:10E10000000000000000000000000000000000000F
:10E1100000000000000000000000000000000000FF
:10E1200000000000000000000000000000000000EF
:10E1300000000000000000000000000000000000DF
:10E1400000000000000000000000000000000000CF
:10E1500000000000000000000000000000000000BF
:10E1600000000000000000000000000000000000AF
:10E17000000000000000000000000000000000009F
:10E18000000000000000000000000000000000008F
:10E19000000000000000000000000000000000007F
:10E1A000000000000000000000000000000000006F
:08E1B000000000000000000067
:00000001FF
